:100000000C9462000C948A000C948A000C948A0070
:100010000C948A000C948A000C948A000C948A0038
:100020000C948A000C948A000C948A000C948A0028
:100030000C948A000C94DD030C948A000C948A00C2
:100040000C9493030C948A000C948A000C948A00FC
:100050000C948A000C948A000C948A000C948A00F8
:100060000C948A000C948A000000000024002700F1
:100070002A0000000000250028002B0000000000DE
:1000800023002600290004040404040404040202DA
:100090000202020203030303030301020408102007
:1000A0004080010204081020010204081020000012
:1000B0000008000201000003040700000000000027
:1000C0000000760511241FBECFEFD8E0DEBFCDBF04
:1000D00011E0A0E0B1E0EEECFEE002C005900D9270
:1000E000A035B107D9F721E0A0E5B1E001C01D922C
:1000F000AD37B207E1F710E0C2E6D0E004C02197C7
:10010000FE010E945A07C136D107C9F70E940404B4
:100110000C9465070C940000833081F028F4813042
:1001200099F08230A1F008958730A9F08830B9F0B5
:100130008430D1F4809180008F7D03C08091800055
:100140008F7780938000089584B58F7702C084B53F
:100150008F7D84BD08958091B0008F7703C080911A
:10016000B0008F7D8093B0000895CF93DF93282F48
:1001700030E0F901E255FF4F8491F901E656FF4F57
:10018000D491F901EA57FF4FC491CC2391F081112A
:100190000E948C00EC2FF0E0EE0FFF1FE458FF4FA1
:1001A000A591B491EC91ED2381E090E021F480E001
:1001B00002C080E090E0DF91CF9108951F93CF932C
:1001C000DF93282F30E0F901E255FF4F8491F901C8
:1001D000E656FF4FD491F901EA57FF4FC491CC2363
:1001E000C1F0162F81110E948C00EC2FF0E0EE0F71
:1001F000FF1FEE58FF4FA591B4919FB7F8941111CE
:1002000004C08C91D095D82302C0EC91DE2BDC93F6
:100210009FBFDF91CF911F910895CF93DF9390E01F
:10022000FC01E656FF4F2491FC01EA57FF4F8491F1
:10023000882361F190E0880F991FFC01E859FF4F76
:10024000C591D491FC01EE58FF4FA591B491611175
:1002500009C09FB7F8948881209582238883EC9108
:100260002E230BC0623061F49FB7F8948881322F3F
:10027000309583238883EC912E2B2C939FBF06C04F
:100280008FB7F894E8812E2B28838FBFDF91CF9111
:1002900008953FB7F8948091610190916201A09117
:1002A0006301B091640126B5A89B05C02F3F19F0EA
:1002B0000196A11DB11D3FBFBA2FA92F982F8827E6
:1002C000820F911DA11DB11DBC01CD0142E0660F41
:1002D000771F881F991F4A95D1F70895CF92DF9213
:1002E000EF92FF920F931F93CF93DF936C017A01EC
:1002F0008B01C0E0D0E0CE15DF0581F0D8016D9113
:100300008D01D601ED91FC910190F081E02DC601A7
:100310000995892B11F02196EECF7E01C701DF915F
:10032000CF911F910F91FF90EF90DF90CF900895A4
:10033000CF93DF93EC0160E08E810E94DE0061E0EC
:100340008E810E94DE0060E08E810E94DE008BE8DC
:1003500091E00197F1F7DF91CF910895CF92DF926D
:10036000EF92FF920F931F93CF93DF936C017C0169
:1003700087E0E80EF11CC0E0D0E0062F10E0B801E5
:100380000C2E02C0759567950A94E2F76170F7012B
:1003900081917F010E94DE002196C430D10579F75A
:1003A000C601DF91CF911F910F91FF90EF90DF90E9
:1003B000CF900C949801CF92DF92EF92FF920F931F
:1003C0001F93CF93DF93EC01F62E642F8C810E9454
:1003D000DE008D818F3F19F060E00E94DE008F8586
:1003E0000F2D10E084FF25C06E0187E0C80ED11CE0
:1003F000E12CF12CB8010E2C02C0759567950A947A
:10040000E2F76170F60181916F010E94DE00FFEF5B
:10041000EF1AFF0A88E0E816F10461F7CE01DF91D8
:10042000CF911F910F91FF90EF90DF90CF900C94A0
:100430009801B80184E0759567958A95E1F7CE013A
:100440000E94AE016F2DCE01DF91CF911F910F91D0
:10045000FF90EF90DF90CF900C94AE0140E0682FBA
:1004600085E691E00C94DB01CF93DF93623028F0B6
:100470009091740198609093740160937801109248
:10048000790190E490937A0180937B0190E0805C05
:100490009F4F80937C0161E0809169010E940D0172
:1004A00080916A018F3F19F061E00E940D0161E0C7
:1004B00080916B010E940D01C5E6D1E09E01255699
:1004C00031408091740184FD03C084E090E002C05B
:1004D00088E090E02196281739072CF461E08E819E
:1004E0000E940D01EBCF8BE39DE00197F1F760E0F7
:1004F000809169010E94DE0060E080916B010E94A2
:10050000DE0080916A018F3F19F060E00E94DE00FA
:100510008091740184FD20C063E085E691E00E9433
:10052000AE01CBE4D6E4CE010197F1F763E085E6B6
:1005300091E00E94AE012197F1F763E085E691E03A
:100540000E94AE0183E592E00197F1F762E085E653
:1005500091E00E94AE0115C080620E942E028BE4E1
:1005600096E40197F1F78091740180620E942E0257
:1005700083E592E00197F1F78091740180620E9417
:100580002E028091740180620E942E0284E080938A
:1005900075018CE00E942E0281E00E942E028BE306
:1005A0009FE10197F1F782E08093760186E0DF9189
:1005B000CF910C942E02643008F063E090917801A2
:1005C000691710F06FEF690FE62FF0E0EB59FE4F5F
:1005D0009489890F80680C942E0241E00E94DB010F
:1005E00081E090E00895089580E090E008950097FC
:1005F00069F0FC0101900020E9F73197AF01481B39
:10060000590BBC0185E691E00C946E0180E090E00E
:1006100008958F929F92AF92BF920F931F93CF93A3
:10062000DF93CDB7DEB7A1970FB6F894DEBF0FBE4C
:10063000CDBF19A2423008F44AE08E010F5D1F4F72
:10064000842E912CA12CB12CA50194010E94380775
:10065000E62FB901CA0101501109EA3014F4E05D36
:1006600001C0E95CD801EC93232B242B252B61F7E7
:10067000C8010E94F702A1960FB6F894DEBF0FBE24
:10068000CDBFDF91CF911F910F91BF90AF909F9001
:100690008F900895CF92DF92EF92FF926B017C01D1
:1006A00041E06DE285E691E00E94DB016627772755
:1006B000CB016C197D098E099F094AE00E9409034C
:1006C0000196FF90EF90DF90CF900895CF93DF9346
:1006D00080915A0190915B01019701F5609154015D
:1006E00070915501EB012196D0935501C0935401AF
:1006F00061E08EE00E94DB02BE01DD0F880B990BEA
:1007000097FF03C00E944A0303C04AE00E94090306
:100710008DE491E0DF91CF910C94F702DF91CF91BE
:1007200008950E9460071F920F920FB60F92112436
:100730002F933F938F939F93AF93BF9380915D01CE
:1007400090915E01A0915F01B091600130915C01D8
:1007500023E0230F2D3720F40196A11DB11D05C004
:1007600026E8230F0296A11DB11D20935C01809302
:100770005D0190935E01A0935F01B0936001809151
:10078000610190916201A0916301B09164010196B1
:10079000A11DB11D8093610190936201A09363013B
:1007A000B0936401BF91AF919F918F913F912F9131
:1007B0000F900FBE0F901F9018951F920F920FB6BB
:1007C0000F9211242F933F934F935F936F937F93D7
:1007D0008F939F93AF93BF93EF93FF93E09150015B
:1007E000F09151010995FF91EF91BF91AF919F91C8
:1007F0008F917F916F915F914F913F912F910F90CA
:100800000FBE0F901F901895789484B5826084BDB8
:1008100084B5816084BD85B5826085BD85B5816004
:1008200085BD80916E00816080936E001092810082
:10083000809181008260809381008091810081603D
:1008400080938100809180008160809380008091FE
:10085000B10084608093B1008091B000816080938A
:10086000B00080917A00846080937A0080917A0051
:10087000826080937A0080917A00816080937A0010
:1008800080917A00806880937A001092C10064E0C1
:1008900084E10E94340260E087E00E940D0162E082
:1008A00082E00E940D0180E180938100109280001F
:1008B00088EA91E6909387008093860084E1809394
:1008C000810086E693E0909351018093500181E08E
:1008D00080936F000E942E028BE39FE10197F1F756
:1008E00060E080E00E94DB028CE091E00E94F70271
:1008F00061E080E00E94DB028EE191E00E94F7025D
:1009000063E080E00E94DB028DE291E00E94F7024A
:1009100062E080E00E94DB028CE391E00E94F7023B
:1009200096E0F92EC0E0D0E020E4E22E01E010E0F5
:10093000E0927C0080917A00806480937A008091BC
:100940007A0086FDFCCF609178008091790070E09C
:10095000782B072E000C880B990B0E943F0620E095
:1009600030EC4FE754E40E94950520E030E44CE978
:1009700055E40E94CB0620E030E040E251E40E94C2
:1009800095050E9407064B015C0163E08EE00E9422
:10099000DB02B401990C880B990B97FF03C00E94EE
:1009A0004A0303C04AE00E9409038BE491E00E94DD
:1009B000F7020E9449012B013C0184E6882E912C0C
:1009C000A12CB12C0E944901DC01CB0184199509AD
:1009D000A609B709883E9340A105B10598F321E027
:1009E000821A9108A108B10888EE480E83E0581ECB
:1009F000611C711C81149104A104B10419F782E0F7
:100A00000E94B500892B21F410935B0100935A01D9
:100A100080915A0190915B01019709F04DC087E0E8
:100A20000E94B5008130910539F420915801309130
:100A30005901232B09F446C087E00E94B500892B99
:100A400039F48091580190915901019709F449C0F6
:100A500080915401909155010A9771F5809156014A
:100A600090915701F89E5001F99EB00C1124B0925C
:100A70005301A092520110925B0110925A0162E060
:100A80008EE00E94DB02B5010B2C000C880B990B49
:100A9000B7FE03C00E944A0303C04AE00E94090354
:100AA0008DE491E00E94F7021092570110925601D6
:100AB0001092550110925401209709F439CF0E94E9
:100AC000000036CF20915601309157012F5F3F4FE4
:100AD0003093570120935601909359018093580108
:100AE000ABCF1092590110925801B2CFE5E6F1E078
:100AF0001382128284E091E0918380838DE084836D
:100B00008FEF85838CE086838BE087838AE0808704
:100B100089E0818788E08287138614861586168689
:100B2000178661E080E10C9434020E94A9050C94C0
:100B300091060E948A0658F00E94830640F029F42C
:100B40005F3F29F00C947A0651110C94C5060C9461
:100B500080060E94A20668F39923B1F3552391F30E
:100B6000951B550BBB27AA2762177307840738F01C
:100B70009F5F5F4F220F331F441FAA1FA9F335D079
:100B80000E2E3AF0E0E832D091505040E695001C2D
:100B9000CAF72BD0FE2F29D0660F771F881FBB1FE7
:100BA000261737074807AB07B0E809F0BB0B802DC5
:100BB000BF01FF2793585F4F3AF09E3F510578F0F1
:100BC0000C947A060C94C5065F3FE4F3983ED4F388
:100BD000869577956795B795F7959F5FC9F7880FC5
:100BE000911D9695879597F90895E1E0660F771F17
:100BF000881FBB1F621773078407BA0720F0621BA8
:100C0000730B840BBA0BEE1F88F7E09508950E94D2
:100C10000E066894B1110C94C50608950E94AA06A8
:100C200088F09F5798F0B92F9927B751B0F0E1F0AD
:100C3000660F771F881F991F1AF0BA95C9F714C05D
:100C4000B13091F00E94C406B1E008950C94C4063E
:100C5000672F782F8827B85F39F0B93FCCF3869596
:100C600077956795B395D9F73EF4909580957095F3
:100C700061957F4F8F4F9F4F0895E89409C097FB70
:100C80003EF490958095709561957F4F8F4F9F4F63
:100C90009923A9F0F92F96E9BB279395F6958795A7
:100CA00077956795B795F111F8CFFAF4BB0F11F46A
:100CB00060FF1BC06F5F7F4F8F4F9F4F16C0882311
:100CC00011F096E911C0772321F09EE8872F762F47
:100CD00005C0662371F096E8862F70E060E02AF088
:100CE0009A95660F771F881FDAF7880F9695879574
:100CF00097F9089597F99F6780E870E060E008959C
:100D00009FEF80EC089500240A9416161706180623
:100D10000906089500240A941216130614060506FF
:100D20000895092E0394000C11F4882352F0BB0F90
:100D300040F4BF2B11F460FF04C06F5F7F4F8F4FF3
:100D40009F4F089557FD9058440F551F59F05F3F2E
:100D500071F04795880F97FB991F61F09F3F79F0DD
:100D600087950895121613061406551FF2CF46955F
:100D7000F1DF08C0161617061806991FF1CF8695E1
:100D80007105610508940895E894BB2766277727C5
:100D9000CB0197F908950E94DE060C9491060E94FB
:100DA000830638F00E948A0620F0952311F00C94F7
:100DB0007A060C94800611240C94C5060E94A206A3
:100DC00070F3959FC1F3950F50E0551F629FF0019E
:100DD000729FBB27F00DB11D639FAA27F00DB11DB7
:100DE000AA1F649F6627B00DA11D661F829F222740
:100DF000B00DA11D621F739FB00DA11D621F839FC7
:100E0000A00D611D221F749F3327A00D611D231F9C
:100E1000849F600D211D822F762F6A2F11249F57EA
:100E200050409AF0F1F088234AF0EE0FFF1FBB1FED
:100E3000661F771F881F91505040A9F79E3F5105AC
:100E400080F00C947A060C94C5065F3FE4F3983E5C
:100E5000D4F3869577956795B795F795E7959F5F56
:100E6000C1F7FE2B880F911D9695879597F90895E8
:100E7000A1E21A2EAA1BBB1BFD010DC0AA1FBB1F9E
:100E8000EE1FFF1FA217B307E407F50720F0A21B10
:100E9000B30BE40BF50B661F771F881F991F1A947D
:100EA00069F760957095809590959B01AC01BD01A7
:100EB000CF010895EE0FFF1F0590F491E02D0994E6
:0E0EC00081E090E0F8940C946507F894FFCF61
:100ECE0000000000ED026E01F402F3024845414CB1
:100EDE005448204D4F4E49544F52494E47005449A5
:100EEE004D4520494E20534543203A2000424F4461
:100EFE00592054454D502020203A20004842205081
:100F0E004552204D494E20203A200020202000003E
:00000001FF
