:1000000014C1000040C100003EC100003CC100001E
:100010003AC1000038C1000036C1000034C1000000
:1000200032C1000030C100002EC100002CC1000010
:100030002AC1000028C1000026C1000024C1000020
:1000400022C1000020C100001EC100001CC1000030
:1000500047C4000018C1000016C10000F7C300002B
:1000600012C1000010C100000EC100000CC1000050
:100070000AC1000008C1000006C1000004C1000060
:1000800002C1000000C10000FEC00000FCC0000072
:10009000FAC00000F8C00000F6C00000F4C0000084
:1000A000F2C00000F0C00000EEC00000ECC0000094
:1000B000EAC00000E8C00000E6C00000E4C00000A4
:1000C000E2C00000E0C00000DEC00000DCC00000B4
:1000D000DAC00000D8C00000D6C00000D4C00000C4
:1000E000D2C000005E016101500154015A01980123
:1000F000650169016F01730177017D01810185014E
:1001000098018B018F01930100002100240027003A
:100110002A002D0030003300010100000401070116
:100120000A0100002200250028002B002E003100CB
:10013000340002010000050108010B01000020004D
:100140002300260029002C002F00320000010000AF
:10015000030106010901050505050705080808084A
:10016000020202020A0A080804040404010101014F
:10017000010101010303030303030303040707074A
:100180000C0C0C0C0C0C0C0C0202020206060606EF
:10019000060606060B0B0B0B0B0B0B0B01021020BC
:1001A00020080810204010204080020102010804AD
:1001B0000201010204081020408080402010080441
:1001C000020180040201804020100804020108049A
:1001D00002010102040810204080010204081020DE
:1001E000408000000A0B02090C0D0E0807030401F1
:1001F00000000000000000000000000000000000FF
:1002000000000000000000000000000000001211CB
:1002100010000000000000000000000000000000CE
:100220000000000000000000BA0511241FBECFEF3F
:10023000D1E2DEBFCDBF00E00CBF12E0A0E0B2E033
:10024000E0E1FCE000E00BBF02C007900D92AC3390
:10025000B107D9F722E0ACE3B2E001C01D92A936A4
:10026000B207E1F711E0C5E1D1E000E005C0219758
:100270000109802FFE01BED4C431D10780E00807F8
:10028000B1F759D3C3C4BCCE90E0FC013197E23141
:10029000F10508F04DC08827EE58FF4F8F4FAAC4D4
:1002A000809180008F7703C0809180008F7D809344
:1002B0008000089580918000877FF9CF84B58F7783
:1002C00002C084B58F7D84BD08958091B0008F7782
:1002D00003C08091B0008F7D8093B000089580911D
:1002E00090008F7707C0809190008F7D03C0809130
:1002F0009000877F8093900008958091A0008F7771
:1003000007C08091A0008F7D03C08091A000877FEF
:100310008093A0000895809120018F7707C080917D
:1003200020018F7D03C080912001877F8093200171
:100330000895CF93DF93282F30E0F901EE51FE4F5F
:100340008491F901E456FE4FD491F901EA5AFE4F27
:10035000C491CC2389F0811197DFEC2FF0E0EE0FF0
:10036000FF1FE45CFE4FA591B491EC91ED2381E079
:1003700090E021F480E002C080E090E0DF91CF9136
:1003800008951F93CF93DF93282F30E0F901EE51AA
:10039000FE4F8491F901E456FE4FD491F901EA5AD7
:1003A000FE4FC491CC23B9F0162F81116DDFEC2FD5
:1003B000F0E0EE0FFF1FEE5DFE4FA591B4919FB7E9
:1003C000F894111104C08C91D095D82302C0EC91FF
:1003D000DE2BDC939FBFDF91CF911F910895CF93C8
:1003E000DF9390E0FC01E456FE4F2491FC01EA5AB1
:1003F000FE4F8491882361F190E0880F991FFC01E2
:10040000E85FFE4FC591D491FC01EE5DFE4FA591D2
:10041000B491611109C09FB7F89488812095822317
:100420008883EC912E230BC0623061F49FB7F8945F
:100430008881322F309583238883EC912E2B2C9347
:100440009FBF06C08FB7F894E8812E2B28838FBFFB
:10045000DF91CF910895CF92DF92EF92FF920F93A9
:100460001F93CF93DF936C017A018B01C0E0D0E042
:10047000CE15DF0581F0D8016D918D01D601ED918A
:10048000FC910190F081E02DC6011995892B11F0A6
:100490002196EECF7E01C701DF91CF911F910F9181
:1004A000FF90EF90DF90CF900895CF93DF93EC0112
:1004B00060E08E8166DF61E08E8163DF60E08E81C7
:1004C00060DF8BE891E00197F1F7DF91CF9108951C
:1004D000CF92DF92EF92FF920F931F93CF93DF9310
:1004E0006C017C0187E0E80EF11CC0E0D0E0062F33
:1004F00010E0B8010C2E02C0759567950A94E2F7DA
:100500006170F70181917F013CDF2196C430D105F4
:1005100081F7C601DF91CF911F910F91FF90EF906E
:10052000DF90CF90C2CFCF92DF92EF92FF920F93E6
:100530001F93CF93DF93EC01F62E642F8C8121DF84
:100540008D818F3F11F060E01CDF8F850F2D10E053
:1005500084FF23C06E0187E0C80ED11CE12CF12C72
:10056000B8010E2C02C0759567950A94E2F7617088
:10057000F60181916F0105DFFFEFEF1AFF0A88E0B6
:10058000E816F10469F7CE01DF91CF911F910F9129
:10059000FF90EF90DF90CF9088CFB80184E0759501
:1005A00067958A95E1F7CE0193DF6F2DCE01DF913C
:1005B000CF911F910F91FF90EF90DF90CF9088CF58
:1005C00040E0682F81E592E0AECFCF93DF936230B9
:1005D00028F09091600298609093600260936402AA
:1005E0001092650290E4909366028093670290E017
:1005F000805C9F4F8093680261E080915502EFDE3E
:10060000809156028F3F11F061E0E9DE61E0809158
:100610005702E5DEC1E5D2E09E01215532408091CE
:10062000600284FD03C084E090E002C088E090E0B6
:1006300021962817390724F461E08E81D0DEECCFB3
:100640008BE39DE00197F1F760E08091550299DE20
:1006500060E08091570295DE809156028F3F11F045
:1006600060E08FDE8091600284FD1CC063E081E564
:1006700092E02EDFCBE4D6E4CE010197F1F763E000
:1006800081E592E025DF2197F1F763E081E592E0D3
:100690001FDF83E592E00197F1F762E081E592E0E8
:1006A00017DF12C080628CDF8BE496E40197F1F7CC
:1006B00080916002806284DF83E592E00197F1F728
:1006C0008091600280627CDF80916002806278DFCE
:1006D00084E0809361028CE073DF81E071DF8BE363
:1006E0009FE10197F1F782E08093620286E0DF915B
:1006F000CF9166CF643008F063E09091640269178F
:1007000010F06FEF690FE62FF0E0EF5AFD4F94897C
:10071000890F806855CF41E006DF81E090E00895C1
:10072000089580E090E00895009761F0FC01019049
:100730000020E9F73197AF01481B590BBC0181E557
:1007400092E089CE80E090E008958F929F92AF92E0
:10075000BF920F931F93CF93DF93CDB7DEB7A197CF
:100760000FB6F894DEBF0FBECDBF19A2423008F419
:100770004AE08E010F5D1F4F842E912CA12CB12CCD
:10078000A501940115D2E62FB901CA010150110942
:10079000EA3014F4E05D01C0E95CD801EC93232B4E
:1007A000242B252B69F7C801BFDFA1960FB6F8945B
:1007B000DEBF0FBECDBFDF91CF911F910F91BF90D4
:1007C000AF909F908F900895CF92DF92EF92FF921B
:1007D0006B017C0141E06DE281E592E0A4DE6627D9
:1007E0007727CB016C197D098E099F094AE0ADDF9F
:1007F0000196FF90EF90DF90CF900895CF93DF9315
:1008000080914602909147020197E1F46091400285
:1008100070914102EB012196D0934102C0934002B6
:1008200061E08EE067DFBE01DD0F880B990B97FF5B
:1008300002C0CADF02C04AE088DF8AE392E0DF91AB
:10084000CF9172CFDF91CF910895DCD11F920F929B
:100850000FB60F9211242F933F938F939F93AF93D3
:10086000BF9380914D0290914E02A0914F02B091A2
:10087000500230914C0223E0230F2D3720F40196D3
:10088000A11DB11D05C026E8230F0296A11DB11DB3
:1008900020934C0280934D0290934E02A0934F02FE
:1008A000B09350028091480290914902A0914A026F
:1008B000B0914B020196A11DB11D80934802909307
:1008C0004902A0934A02B0934B02BF91AF919F910E
:1008D0008F913F912F910F900FBE0F901F90189501
:1008E0001F920F920FB60F9211240BB60F922F93F7
:1008F0003F934F935F936F937F938F939F93AF93A8
:10090000BF93EF93FF93E0913C02F0913D02199564
:10091000FF91EF91BF91AF919F918F917F916F91D7
:100920005F914F913F912F910F900BBE0F900FBE93
:100930000F901F901895789484B5826084BD84B51B
:10094000816084BD85B5826085BD85B5816085BDCA
:1009500080916E00816080936E0010928100809182
:10096000810082608093810080918100816080930A
:100970008100809180008160809380008091B1002F
:1009800084608093B1008091B00081608093B0005A
:1009900080919100826080939100809191008160AC
:1009A000809391008091900081608093900080916D
:1009B000A10082608093A1008091A100816080935A
:1009C000A1008091A00081608093A000809121010E
:1009D00082608093210180912101816080932101B7
:1009E0008091200181608093200180917A00846051
:1009F00080937A0080917A00826080937A0080915F
:100A00007A00816080937A0080917A008068809378
:100A10007A001092C10064E084E1D7DD60E08EE0EE
:100A2000DEDC62E08FE1DBDC80E18093810010920C
:100A3000800080E593EC909387008093860082E1AC
:100A4000809381008EEF93E090933D0280933C026F
:100A500081E080936F00B4DD8BE39FE10197F1F7B4
:100A600060E080E047DE8CE092E05EDE61E080E006
:100A700041DE8EE192E058DE62E080E03BDE8DE216
:100A800092E052DE86E0D82E00E010E0EE24E394FF
:100A9000F12C8FE14EDC892B21F4F0924702E09299
:100AA00046028091460290914702019709F047C0A3
:100AB0008EE03FDC8130910539F420914402309181
:100AC0004502232B09F442C08EE033DC892B39F434
:100AD0008091440290914502019709F446C08091AB
:100AE0004002909141020A9751F580914202909103
:100AF0004302D89EE001D99ED00D1124D0933F022D
:100B0000C0933E02109247021092460262E08EE0CD
:100B1000F1DDBE010D2E000C880B990BD7FF02C032
:100B200053DE02C04AE011DE8AE392E0FDDD10925E
:100B300043021092420210924102109240020115AB
:100B4000110509F4A6CF0E940000A3CF2091420214
:100B5000309143022F5F3F4F309343022093420274
:100B60009093450280934402AFCF109245021092B9
:100B70004402B5CFE1E5F2E01382128284E092E014
:100B80009183808381E184838FEF858380E18683F5
:100B900086E0878387E0808788E0818789E0828795
:100BA0001386148615861686178661E080E10DCDC2
:100BB000A1E21A2EAA1BBB1BFD010DC0AA1FBB1F61
:100BC000EE1FFF1FA217B307E407F50720F0A21BD3
:100BD000B30BE40BF50B661F771F881F991F1A9440
:100BE00069F760957095809590959B01AC01BD016A
:100BF000CF010895EE0FFF1F881F8BBF0790F6915E
:100C0000E02D199481E090E0F89400C0F894FFCFB3
:100C1000000000008B032B02910390034845414CD8
:100C20005448204D4F4E49544F52494E4700544965
:100C30004D4520494E20534543203A20004842204C
:0C0C4000504552204D494E20203A200023
:00000001FF
