:1000000014C1000040C100003EC100003CC100001E
:100010003AC1000038C1000036C1000034C1000000
:1000200032C1000030C100002EC100002CC1000010
:100030002AC1000028C1000026C1000024C1000020
:1000400022C1000020C100001EC100001CC1000030
:10005000DAC5000018C1000016C100002BC5000061
:1000600012C100009AC500006FC500000CC100005D
:100070000AC1000008C1000006C1000004C1000060
:1000800002C1000000C10000FEC00000FCC0000072
:10009000FAC00000F8C00000F6C00000F4C0000084
:1000A000F2C00000F0C00000EEC00000ECC0000094
:1000B000EAC00000E8C00000E6C00000E4C00000A4
:1000C000E2C00000E0C00000DEC00000DCC00000B4
:1000D000DAC00000D8C00000D6C00000D4C00000C4
:1000E000D2C000005E016101500154015A01980123
:1000F000650169016F01730177017D01810185014E
:1001000098018B018F01930100002100240027003A
:100110002A002D0030003300010100000401070116
:100120000A0100002200250028002B002E003100CB
:10013000340002010000050108010B01000020004D
:100140002300260029002C002F00320000010000AF
:10015000030106010901050505050705080808084A
:10016000020202020A0A080804040404010101014F
:10017000010101010303030303030303040707074A
:100180000C0C0C0C0C0C0C0C0202020206060606EF
:10019000060606060B0B0B0B0B0B0B0B01021020BC
:1001A00020080810204010204080020102010804AD
:1001B0000201010204081020408080402010080441
:1001C000020180040201804020100804020108049A
:1001D00002010102040810204080010204081020DE
:1001E000408000000A0B02090C0D0E0807030401F1
:1001F00000000000000000000000000000000000FF
:1002000000000000000000000000000000001211CB
:1002100010000000000000000000000000000000CE
:1002200000000000000000002E0611241FBECFEFCA
:10023000D1E2DEBFCDBF00E00CBF12E0A0E0B2E033
:10024000EAE2F0E100E00BBF02C007900D92A03699
:10025000B107D9F723E0A0E6B2E001C01D92AA32AF
:10026000B207E1F711E0C5E1D1E000E005C0219758
:100270000109802FFE01CBD6C431D10780E00807E9
:10028000B1F736D5D0C6BCCE90E0FC013197E23153
:10029000F10508F04DC08827EE58FF4F8F4FB7C6C5
:1002A000809180008F7703C0809180008F7D809344
:1002B0008000089580918000877FF9CF84B58F7783
:1002C00002C084B58F7D84BD08958091B0008F7782
:1002D00003C08091B0008F7D8093B000089580911D
:1002E00090008F7707C0809190008F7D03C0809130
:1002F0009000877F8093900008958091A0008F7771
:1003000007C08091A0008F7D03C08091A000877FEF
:100310008093A0000895809120018F7707C080917D
:1003200020018F7D03C080912001877F8093200171
:100330000895CF93DF93282F30E0F901EE51FE4F5F
:100340008491F901E456FE4FD491F901EA5AFE4F27
:10035000C491CC2389F0811197DFEC2FF0E0EE0FF0
:10036000FF1FE45CFE4FA591B491EC91ED2381E079
:1003700090E021F480E002C080E090E0DF91CF9136
:1003800008951F93CF93DF93282F30E0F901EE51AA
:10039000FE4F8491F901E456FE4FD491F901EA5AD7
:1003A000FE4FC491CC23B9F0162F81116DDFEC2FD5
:1003B000F0E0EE0FFF1FEE5DFE4FA591B4919FB7E9
:1003C000F894111104C08C91D095D82302C0EC91FF
:1003D000DE2BDC939FBFDF91CF911F910895CF93C8
:1003E000DF9390E0FC01E456FE4F2491FC01EA5AB1
:1003F000FE4F8491882361F190E0880F991FFC01E2
:10040000E85FFE4FC591D491FC01EE5DFE4FA591D2
:10041000B491611109C09FB7F89488812095822317
:100420008883EC912E230BC0623061F49FB7F8945F
:100430008881322F309583238883EC912E2B2C9347
:100440009FBF06C08FB7F894E8812E2B28838FBFFB
:10045000DF91CF910895CF92DF92EF92FF920F93A9
:100460001F93CF93DF936C017A018B01C0E0D0E042
:10047000CE15DF0581F0D8016D918D01D601ED918A
:10048000FC910190F081E02DC6011995892B11F0A6
:100490002196EECF7E01C701DF91CF911F910F9181
:1004A000FF90EF90DF90CF900895FC01538D448D25
:1004B000252F30E0842F90E0821B930B541710F00F
:1004C000CF96089501970895FC01918D828D98171C
:1004D00061F0828DDF01A80FB11D5D968C91928D28
:1004E0009F5F9F73928F90E008958FEF9FEF089525
:1004F000FC01918D828D981731F0828DE80FF11DEE
:10050000858D90E008958FEF9FEF0895FC01918D08
:10051000228D892F90E0805C9F4F821B91098F7301
:100520009927089585E792E0F1DF21E0892B09F40E
:1005300020E0822F0895FC01848DDF01A80FB11DFA
:10054000A35ABF4F2C91848D90E001968F73992709
:10055000848FA689B7892C93A089B1898C918370E7
:1005600080648C93938D848D981306C00288F389E0
:10057000E02D80818F7D80830895EF92FF920F930D
:100580001F93CF93DF93EC0181E0888F9B8D8C8D3F
:10059000981305C0E889F989808185FD25C0F62E6C
:1005A0000B8D10E00F5F1F4F0F731127E02E8C8D06
:1005B000E8120BC00FB607FCFACFE889F9898081F1
:1005C00085FFF5CFCE01B7DFF2CF8B8DFE01E80FAF
:1005D000F11DE35AFF4FF0829FB7F8940B8FEA8921
:1005E000FB89808180620AC09FB7F894EE89FF89F9
:1005F0006083E889F98980818370806480839FBFEC
:1006000081E090E0DF91CF911F910F91FF90EF90EB
:100610000895CF93DF93EC01888D8823C1F0EA8998
:10062000FB89808185FD05C0A889B9898C9186FDEB
:100630000EC00FB607FCF5CF808185FFF2CFA889E9
:10064000B9898C9185FFEDCFCE0175DFE8CFDF91C1
:10065000CF91089580E090E0892B19F063DF81113C
:1006600025C080E090E0892B41F080E090E0892B6C
:1006700021F00E94000081111CC080E090E0892BD5
:1006800041F080E090E0892B21F00E940000811170
:1006900013C080E090E0892BA1F080E090E0892BEE
:1006A00081F00E94000081110AC008950E9400009C
:1006B000D8CF0E940000E1CF0E940000EACF0C9446
:1006C00000000895CF93DF93EC0160E08E8159DE46
:1006D00061E08E8156DE60E08E8153DE8BE891E032
:1006E0000197F1F7DF91CF910895CF92DF92EF92CA
:1006F000FF920F931F93CF93DF936C017C0187E0F0
:10070000E80EF11CC0E0D0E0062F10E0B8010C2E7E
:1007100002C0759567950A94E2F76170F7018191BF
:100720007F012FDE2196C430D10581F7C601DF910C
:10073000CF911F910F91FF90EF90DF90CF90C2CF9C
:10074000CF92DF92EF92FF920F931F93CF93DF939D
:10075000EC01F62E642F8C8114DE8D818F3F11F019
:1007600060E00FDE8F850F2D10E084FF23C06E0147
:1007700087E0C80ED11CE12CF12CB8010E2C02C070
:10078000759567950A94E2F76170F60181916F01A2
:10079000F8DDFFEFEF1AFF0A88E0E816F10469F7C9
:1007A000CE01DF91CF911F910F91FF90EF90DF90DD
:1007B000CF9088CFB80184E0759567958A95E1F769
:1007C000CE0193DF6F2DCE01DF91CF911F910F915D
:1007D000FF90EF90DF90CF9088CF40E0682F82E1CC
:1007E00093E0AECFCF93DF93623028F09091210356
:1007F000986090932103609325031092260390E460
:10080000909327038093280390E0805C9F4F809310
:10081000290361E080911603E2DD809117038F3F89
:1008200011F061E0DCDD61E080911803D8DDC2E108
:10083000D3E09E01225133408091210384FD03C007
:1008400084E090E002C088E090E021962817390704
:1008500024F461E08E81C3DDECCF8BE39DE0019752
:10086000F1F760E0809116038CDD60E08091180361
:1008700088DD809117038F3F11F060E082DD809169
:10088000210384FD1CC063E082E193E02EDFCBE412
:10089000D6E4CE010197F1F763E082E193E025DF32
:1008A0002197F1F763E082E193E01FDF83E592E0B7
:1008B0000197F1F762E082E193E017DF12C08062F6
:1008C0008CDF8BE496E40197F1F78091210380623D
:1008D00084DF83E592E00197F1F780912103806244
:1008E0007CDF80912103806278DF84E080932203A3
:1008F0008CE073DF81E071DF8BE39FE10197F1F71B
:1009000082E08093230386E0DF91CF9166CF64304D
:1009100008F063E090912503691710F06FEF690FFD
:10092000E62FF0E0EE5EFC4F9489890F806855CF8A
:1009300041E006DF81E090E00895089580E090E0D6
:1009400008956DD36115710579F0FB0101900020C8
:10095000E9F73197AF01461B570BDC01ED91FC9194
:100960000280F381E02D199480E090E008954F9289
:100970005F926F927F928F929F92AF92BF92CF922F
:10098000DF92EF92FF920F931F93CF93DF93CDB738
:10099000DEB7A1970FB6F894DEBF0FBECDBF8C01B6
:1009A0006A017B0177FF2DC0DC01ED91FC91019084
:1009B000F081E02D6DE219955C0122273327A90112
:1009C0002C193D094E095F0919A2FE01B1967F015C
:1009D0009AE0492E512C612C712CCA01B901A30156
:1009E0009201F3D2605DD7016E937D01211531052F
:1009F0004105510591F7BD01C801A4DF8A0D9B1D7A
:100A00001CC09A01AB0119A2FE01B1967F018AE0D8
:100A1000882E912CA12CB12CCA01B901A5019401F9
:100A2000D4D2605DD7016E937D012115310541055A
:100A3000510591F7BD01C80185DFA1960FB6F89465
:100A4000DEBF0FBECDBFDF91CF911F910F91FF9001
:100A5000EF90DF90CF90BF90AF909F908F907F905E
:100A60006F905F904F900895CF93DF9380916A02CB
:100A700090916B020197D9F4409164025091650204
:100A8000EA012196D0936502C093640261E08EE092
:100A90003EDFAE01DD0F660B770B82E193E067DF8F
:100AA0006CE472E082E193E0DF91CF914BCFDF9174
:100AB000CF9108951F920F920FB60F9211242F938A
:100AC0003F938F939F93AF93BF93809171029091C7
:100AD0007202A0917302B09174023091700223E00F
:100AE000230F2D3720F40196A11DB11D05C026E866
:100AF000230F0296A11DB11D2093700280937102F5
:100B000090937202A0937302B093740280916C026E
:100B100090916D02A0916E02B0916F020196A11D9D
:100B2000B11D80936C0290936D02A0936E02B093FE
:100B30006F02BF91AF919F918F913F912F910F9035
:100B40000FBE0F901F9018951F920F920FB60F9225
:100B500011240BB60F922F933F934F935F936F9394
:100B60007F938F939F93AF93BF93EF93FF9385E70B
:100B700092E0E1DCFF91EF91BF91AF919F918F9156
:100B80007F916F915F914F913F912F910F900BBE8D
:100B90000F900FBE0F901F9018951F920F920FB6D7
:100BA0000F9211240BB60F922F938F939F93EF9375
:100BB000FF93E0918502F09186028081E0918B02A3
:100BC000F0918C0282FD12C0908180918E028F5F25
:100BD0008F7320918F02821751F0E0918E02F0E026
:100BE000EB58FD4F958F80938E0201C08081FF915D
:100BF000EF919F918F912F910F900BBE0F900FBE91
:100C00000F901F9018951F920F920FB60F921124FC
:100C10000BB60F922F933F934F935F936F937F93F6
:100C20008F939F93AF93BF93EF93FF93E0916002F5
:100C3000F09161021995FF91EF91BF91AF919F9152
:100C40008F917F916F915F914F913F912F910F9075
:100C50000BBE0F900FBE0F901F901895E5E7F2E0C6
:100C60001382128288EE93E0A0E0B0E08483958343
:100C7000A683B78384E092E09183808385EC90E043
:100C80009587848784EC90E09787868780EC90E056
:100C9000918B808B81EC90E0938B828B82EC90E047
:100CA000958B848B86EC90E0978B868B118E128EC1
:100CB000138E148EE2E1F3E01382128286E192E059
:100CC0009183808381E184838FEF858380E18683B4
:100CD00086E0878387E0808788E0818789E0828754
:100CE0001386148615861686178661E080E17ACD14
:100CF000789484B5826084BD84B5816084BD85B5F7
:100D0000826085BD85B5816085BD80916E00816002
:100D100080936E00109281008091810082608093A8
:100D200081008091810081608093810080918000AA
:100D30008160809380008091B10084608093B100D5
:100D40008091B00081608093B000809191008260BA
:100D500080939100809191008160809391008091B7
:100D600090008160809390008091A10082608093C8
:100D7000A1008091A10081608093A1008091A000DA
:100D800081608093A0008091210182608093210185
:100D900080912101816080932101809120018160F7
:100DA0008093200180917A00846080937A00809102
:100DB0007A00826080937A0080917A0081608093CB
:100DC0007A0080917A00806880937A001092C10046
:100DD000E0918502F091860282E08083E0918102B9
:100DE000F09182021082E0918302F09184028FECF4
:100DF000808310928D02E0918902F0918A0286E050
:100E00008083E0918702F0918802808180618083F5
:100E1000E0918702F0918802808188608083E09170
:100E20008702F0918802808180688083E091870248
:100E3000F091880280818F7D808364E084E1D2DC40
:100E400060E08EE0CCDA62E08FE1C9DA80E1809385
:100E500081001092800084ED90E39093870080934E
:100E6000860083E18093810084E395E090936102A2
:100E70008093600281E080936F00AFDC8BE39FE1A1
:100E80000197F1F760E080E042DD6EE172E082E11F
:100E900093E058DD61E080E03ADD60E372E082E1FA
:100EA00093E050DD62E080E032DD6FE372E082E1EA
:100EB00093E048DD01E010E086E0F82E85E792E05F
:100EC00025DB181619064CF485E792E0FDDA81332C
:100ED00021F410936B0200936A0280916A02909150
:100EE0006B02019709F05BC08EE023DA8130910537
:100EF00039F42091680230916902232B09F451C022
:100F00008EE017DA892B39F480916802909169029A
:100F1000019709F455C080916402909165020A9787
:100F200009F03DC08091660290916702F89EE00151
:100F3000F99ED00D1124D0936302C09362021092E7
:100F40006B0210926A0262E08EE0E1DCAE01DD0F1E
:100F5000660B770B82E193E00ADD6CE472E082E1DC
:100F600093E0F0DC6EE472E085E792E0EBDC409128
:100F7000620250916302052E000C660B770B85E729
:100F800092E0F5DC6CE572E085E792E0DBDC109244
:100F900067021092660210926502109264025ADB98
:100FA0008DCF20916602309167022F5F3F4F3093C3
:100FB0006702209366029093690280936802A0CF33
:100FC0001092690210926802A6CFA1E21A2EAA1B03
:100FD000BB1BFD010DC0AA1FBB1FEE1FFF1FA217E9
:100FE000B307E407F50720F0A21BB30BE40BF50BE6
:100FF000661F771F881F991F1A9469F7609570956F
:10100000809590959B01AC01BD01CF010895EE0F35
:10101000FF1F881F8BBF0790F691E02D199481E088
:0A10200090E0F89400C0F894FFCFB0
:10102A0000000000BD022B02550209038602640279
:10103A0078020000000098042B029E049D04484593
:10104A00414C5448204D4F4E49544F52494E470047
:10105A0054494D4520494E20534543203A200048E3
:10106A004220504552204D494E20203A2000204827
:10107A006561727420526174653A20000D0A00009D
:00000001FF
